{
  "contractName": "DappToken",
  "abi": [
    {
      "inputs": [],
      "stateMutability": "nonpayable",
      "type": "constructor"
    },
    {
      "inputs": [],
      "name": "totalSupply",
      "outputs": [
        {
          "internalType": "uint256",
          "name": "",
          "type": "uint256"
        }
      ],
      "stateMutability": "view",
      "type": "function",
      "constant": true
    }
  ],
  "bytecode": "0x608060405234801561001057600080fd5b50620f424060008190555060b3806100296000396000f3fe6080604052348015600f57600080fd5b506004361060285760003560e01c806318160ddd14602d575b600080fd5b60336047565b604051603e91906064565b60405180910390f35b60005481565b6000819050919050565b605e81604d565b82525050565b6000602082019050607760008301846057565b9291505056fea26469706673582212207b4f94c641c9d7e584d251549d5eb336ec0615614c614a215b9493930149871664736f6c634300080a0033",
  "immutableReferences": {},
  "source": "pragma solidity >=0.4.2 <0.9.0;\n\ncontract DappToken {\n\t// Constructor\n\t// Set the total number of tokens\n\t// Read the total number of tokens\n\tuint256 public totalSupply; // written to blockchain, public. ERC20 standard, required for totalSupply function. \n\t\t\t\t\t\t\t\t// https://github.com/ethereum/EIPs/blob/master/EIPS/eip-20.md \n\n\tconstructor() {\n\t\ttotalSupply = 1000000; // state variable. accessible to entire contract. Write to storage.\n\t}\n\n\n}",
  "sourcePath": "/Users/albert/repo/DAPPcoin_demo/token_sale/contracts/DappToken.sol",
  "compiler": {
    "name": "solc",
    "version": "0.8.10+commit.fc410830.Emscripten.clang"
  },
  "schemaVersion": "3.4.3",
  "updatedAt": "2021-11-25T22:21:27.361Z",
  "networkType": "ethereum",
  "devdoc": {
    "kind": "dev",
    "methods": {},
    "version": 1
  },
  "userdoc": {
    "kind": "user",
    "methods": {},
    "version": 1
  }
}