{
  "contractName": "DappToken",
  "abi": [
    {
      "inputs": [
        {
          "internalType": "uint256",
          "name": "_initialSupply",
          "type": "uint256"
        }
      ],
      "stateMutability": "nonpayable",
      "type": "constructor"
    },
    {
      "inputs": [
        {
          "internalType": "address",
          "name": "",
          "type": "address"
        }
      ],
      "name": "balanceOf",
      "outputs": [
        {
          "internalType": "uint256",
          "name": "",
          "type": "uint256"
        }
      ],
      "stateMutability": "view",
      "type": "function",
      "constant": true
    },
    {
      "inputs": [],
      "name": "totalSupply",
      "outputs": [
        {
          "internalType": "uint256",
          "name": "",
          "type": "uint256"
        }
      ],
      "stateMutability": "view",
      "type": "function",
      "constant": true
    }
  ],
  "bytecode": "0x608060405234801561001057600080fd5b5060405161029b38038061029b833981810160405281019061003291906100be565b80600160003373ffffffffffffffffffffffffffffffffffffffff1673ffffffffffffffffffffffffffffffffffffffff1681526020019081526020016000208190555080600081905550506100eb565b600080fd5b6000819050919050565b61009b81610088565b81146100a657600080fd5b50565b6000815190506100b881610092565b92915050565b6000602082840312156100d4576100d3610083565b5b60006100e2848285016100a9565b91505092915050565b6101a1806100fa6000396000f3fe608060405234801561001057600080fd5b50600436106100365760003560e01c806318160ddd1461003b57806370a0823114610059575b600080fd5b610043610089565b60405161005091906100c0565b60405180910390f35b610073600480360381019061006e919061013e565b61008f565b60405161008091906100c0565b60405180910390f35b60005481565b60016020528060005260406000206000915090505481565b6000819050919050565b6100ba816100a7565b82525050565b60006020820190506100d560008301846100b1565b92915050565b600080fd5b600073ffffffffffffffffffffffffffffffffffffffff82169050919050565b600061010b826100e0565b9050919050565b61011b81610100565b811461012657600080fd5b50565b60008135905061013881610112565b92915050565b600060208284031215610154576101536100db565b5b600061016284828501610129565b9150509291505056fea264697066735822122036aaa7806fab80e213fa2185f92f368a506d7fea39e6d4f75eea6131a00e80ac64736f6c634300080a0033",
  "immutableReferences": {},
  "source": "pragma solidity >=0.4.2 <0.9.0;\n\ncontract DappToken {\n\t// Constructor\n\t// Set the total number of tokens\n\t// Read the total number of tokens\n\tuint256 public totalSupply; // written to blockchain, public. ERC20 standard, required for totalSupply function. \n\t\t\t\t\t\t\t\t// https://github.com/ethereum/EIPs/blob/master/EIPS/eip-20.md \n\n\tmapping(address => uint256) public balanceOf;\n\n\tconstructor(uint256 _initialSupply) {\n\t\tbalanceOf[msg.sender] = _initialSupply; // msg is a global variable, has several values, like sender.\n\t\ttotalSupply = _initialSupply; // state variable. accessible to entire contract. Write to storage.\n\t\t// allocate the initial supply\n\n\t}\n\n\n}",
  "sourcePath": "/Users/albert/repo/DAPPcoin_demo/token_sale/contracts/DappToken.sol",
  "compiler": {
    "name": "solc",
    "version": "0.8.10+commit.fc410830.Emscripten.clang"
  },
  "schemaVersion": "3.4.3",
  "updatedAt": "2021-11-26T05:28:10.517Z",
  "networkType": "ethereum",
  "devdoc": {
    "kind": "dev",
    "methods": {},
    "version": 1
  },
  "userdoc": {
    "kind": "user",
    "methods": {},
    "version": 1
  }
}